{
  "_format": "hh-sol-artifact-1",
  "contractName": "BuyMeACoffee",
  "sourceName": "contracts/BuyMeACoffee.sol",
  "abi": [
    {
      "anonymous": false,
      "inputs": [
        {
          "indexed": true,
          "internalType": "address",
          "name": "from",
          "type": "address"
        },
        {
          "indexed": false,
          "internalType": "uint256",
          "name": "timestamp",
          "type": "uint256"
        },
        {
          "indexed": false,
          "internalType": "string",
          "name": "name",
          "type": "string"
        },
        {
          "indexed": false,
          "internalType": "string",
          "name": "message",
          "type": "string"
        }
      ],
      "name": "NewMemo",
      "type": "event"
    },
    {
      "inputs": [
        {
          "internalType": "string",
          "name": "_name",
          "type": "string"
        },
        {
          "internalType": "string",
          "name": "_message",
          "type": "string"
        }
      ],
      "name": "buyCoffee",
      "outputs": [],
      "stateMutability": "payable",
      "type": "function"
    },
    {
      "inputs": [],
      "name": "getMemos",
      "outputs": [
        {
          "components": [
            {
              "internalType": "address",
              "name": "from",
              "type": "address"
            },
            {
              "internalType": "uint256",
              "name": "timestamp",
              "type": "uint256"
            },
            {
              "internalType": "string",
              "name": "name",
              "type": "string"
            },
            {
              "internalType": "string",
              "name": "message",
              "type": "string"
            }
          ],
          "internalType": "struct BuyMeACoffee.Memo[]",
          "name": "",
          "type": "tuple[]"
        }
      ],
      "stateMutability": "view",
      "type": "function"
    },
    {
      "inputs": [
        {
          "internalType": "uint256",
          "name": "",
          "type": "uint256"
        }
      ],
      "name": "memos",
      "outputs": [
        {
          "internalType": "address",
          "name": "from",
          "type": "address"
        },
        {
          "internalType": "uint256",
          "name": "timestamp",
          "type": "uint256"
        },
        {
          "internalType": "string",
          "name": "name",
          "type": "string"
        },
        {
          "internalType": "string",
          "name": "message",
          "type": "string"
        }
      ],
      "stateMutability": "view",
      "type": "function"
    }
  ],
  "bytecode": "0x6080604052348015600f57600080fd5b50610e5f8061001f6000396000f3fe6080604052600436106100345760003560e01c8063204206e114610039578063865c517214610055578063e8dfdf0414610080575b600080fd5b610053600480360381019061004e91906106e7565b6100c0565b005b34801561006157600080fd5b5061006a61023a565b6040516100779190610964565b60405180910390f35b34801561008c57600080fd5b506100a760048036038101906100a291906109b2565b61041d565b6040516100b79493929190610a47565b60405180910390f35b60003411610103576040517f08c379a00000000000000000000000000000000000000000000000000000000081526004016100fa90610ae6565b60405180910390fd5b600060405180608001604052803373ffffffffffffffffffffffffffffffffffffffff16815260200142815260200184815260200183815250908060018154018082558091505060019003906000526020600020906004020160009091909190915060008201518160000160006101000a81548173ffffffffffffffffffffffffffffffffffffffff021916908373ffffffffffffffffffffffffffffffffffffffff1602179055506020820151816001015560408201518160020190816101cb9190610d12565b5060608201518160030190816101e19190610d12565b5050503373ffffffffffffffffffffffffffffffffffffffff167fc56140e05f516509ae28110e0f72e17558a7561630dad2647c3ae87d986e365c42848460405161022e93929190610de4565b60405180910390a25050565b60606000805480602002602001604051908101604052809291908181526020016000905b8282101561041457838290600052602060002090600402016040518060800160405290816000820160009054906101000a900473ffffffffffffffffffffffffffffffffffffffff1673ffffffffffffffffffffffffffffffffffffffff1673ffffffffffffffffffffffffffffffffffffffff168152602001600182015481526020016002820180546102f190610b35565b80601f016020809104026020016040519081016040528092919081815260200182805461031d90610b35565b801561036a5780601f1061033f5761010080835404028352916020019161036a565b820191906000526020600020905b81548152906001019060200180831161034d57829003601f168201915b5050505050815260200160038201805461038390610b35565b80601f01602080910402602001604051908101604052809291908181526020018280546103af90610b35565b80156103fc5780601f106103d1576101008083540402835291602001916103fc565b820191906000526020600020905b8154815290600101906020018083116103df57829003601f168201915b5050505050815250508152602001906001019061025e565b50505050905090565b6000818154811061042d57600080fd5b90600052602060002090600402016000915090508060000160009054906101000a900473ffffffffffffffffffffffffffffffffffffffff169080600101549080600201805461047c90610b35565b80601f01602080910402602001604051908101604052809291908181526020018280546104a890610b35565b80156104f55780601f106104ca576101008083540402835291602001916104f5565b820191906000526020600020905b8154815290600101906020018083116104d857829003601f168201915b50505050509080600301805461050a90610b35565b80601f016020809104026020016040519081016040528092919081815260200182805461053690610b35565b80156105835780601f1061055857610100808354040283529160200191610583565b820191906000526020600020905b81548152906001019060200180831161056657829003601f168201915b5050505050905084565b6000604051905090565b600080fd5b600080fd5b600080fd5b600080fd5b6000601f19601f8301169050919050565b7f4e487b7100000000000000000000000000000000000000000000000000000000600052604160045260246000fd5b6105f4826105ab565b810181811067ffffffffffffffff82111715610613576106126105bc565b5b80604052505050565b600061062661058d565b905061063282826105eb565b919050565b600067ffffffffffffffff821115610652576106516105bc565b5b61065b826105ab565b9050602081019050919050565b82818337600083830152505050565b600061068a61068584610637565b61061c565b9050828152602081018484840111156106a6576106a56105a6565b5b6106b1848285610668565b509392505050565b600082601f8301126106ce576106cd6105a1565b5b81356106de848260208601610677565b91505092915050565b600080604083850312156106fe576106fd610597565b5b600083013567ffffffffffffffff81111561071c5761071b61059c565b5b610728858286016106b9565b925050602083013567ffffffffffffffff8111156107495761074861059c565b5b610755858286016106b9565b9150509250929050565b600081519050919050565b600082825260208201905092915050565b6000819050602082019050919050565b600073ffffffffffffffffffffffffffffffffffffffff82169050919050565b60006107b68261078b565b9050919050565b6107c6816107ab565b82525050565b6000819050919050565b6107df816107cc565b82525050565b600081519050919050565b600082825260208201905092915050565b60005b8381101561081f578082015181840152602081019050610804565b60008484015250505050565b6000610836826107e5565b61084081856107f0565b9350610850818560208601610801565b610859816105ab565b840191505092915050565b600060808301600083015161087c60008601826107bd565b50602083015161088f60208601826107d6565b50604083015184820360408601526108a7828261082b565b915050606083015184820360608601526108c1828261082b565b9150508091505092915050565b60006108da8383610864565b905092915050565b6000602082019050919050565b60006108fa8261075f565b610904818561076a565b9350836020820285016109168561077b565b8060005b85811015610952578484038952815161093385826108ce565b945061093e836108e2565b925060208a0199505060018101905061091a565b50829750879550505050505092915050565b6000602082019050818103600083015261097e81846108ef565b905092915050565b61098f816107cc565b811461099a57600080fd5b50565b6000813590506109ac81610986565b92915050565b6000602082840312156109c8576109c7610597565b5b60006109d68482850161099d565b91505092915050565b6109e8816107ab565b82525050565b6109f7816107cc565b82525050565b600082825260208201905092915050565b6000610a19826107e5565b610a2381856109fd565b9350610a33818560208601610801565b610a3c816105ab565b840191505092915050565b6000608082019050610a5c60008301876109df565b610a6960208301866109ee565b8181036040830152610a7b8185610a0e565b90508181036060830152610a8f8184610a0e565b905095945050505050565b7f4d7573742073656e642045544820746f2062757920636f666665652e00000000600082015250565b6000610ad0601c836109fd565b9150610adb82610a9a565b602082019050919050565b60006020820190508181036000830152610aff81610ac3565b9050919050565b7f4e487b7100000000000000000000000000000000000000000000000000000000600052602260045260246000fd5b60006002820490506001821680610b4d57607f821691505b602082108103610b6057610b5f610b06565b5b50919050565b60008190508160005260206000209050919050565b60006020601f8301049050919050565b600082821b905092915050565b600060088302610bc87fffffffffffffffffffffffffffffffffffffffffffffffffffffffffffffffff82610b8b565b610bd28683610b8b565b95508019841693508086168417925050509392505050565b6000819050919050565b6000610c0f610c0a610c05846107cc565b610bea565b6107cc565b9050919050565b6000819050919050565b610c2983610bf4565b610c3d610c3582610c16565b848454610b98565b825550505050565b600090565b610c52610c45565b610c5d818484610c20565b505050565b5b81811015610c8157610c76600082610c4a565b600181019050610c63565b5050565b601f821115610cc657610c9781610b66565b610ca084610b7b565b81016020851015610caf578190505b610cc3610cbb85610b7b565b830182610c62565b50505b505050565b600082821c905092915050565b6000610ce960001984600802610ccb565b1980831691505092915050565b6000610d028383610cd8565b9150826002028217905092915050565b610d1b826107e5565b67ffffffffffffffff811115610d3457610d336105bc565b5b610d3e8254610b35565b610d49828285610c85565b600060209050601f831160018114610d7c5760008415610d6a578287015190505b610d748582610cf6565b865550610ddc565b601f198416610d8a86610b66565b60005b82811015610db257848901518255600182019150602085019450602081019050610d8d565b86831015610dcf5784890151610dcb601f891682610cd8565b8355505b6001600288020188555050505b505050505050565b6000606082019050610df960008301866109ee565b8181036020830152610e0b8185610a0e565b90508181036040830152610e1f8184610a0e565b905094935050505056fea2646970667358221220bc00fd45038a1634913e623a31b2ec76a26636b713b7e8d878447630e4eb15a664736f6c634300081c0033",
  "linkReferences": {},
  "deployedLinkReferences": {}
}